:100000000C9462000C948A000C948A000C948A0070
:100010000C948A000C948A000C948A000C948A0038
:100020000C948A000C948A000C948A000C948A0028
:100030000C948A000C948A000C948A000C948A0018
:100040000C94EA020C948A000C945A030C94340326
:100050000C948A000C948A000C948A000C948A00F8
:100060000C948A000C948A000000000023002600F3
:10007000290000000000240027002A0000000000E2
:10008000250028002B0004040404040404040202D4
:100090000202020203030303030301020408102007
:1000A0004080010204081020010204081020000012
:1000B0000008000201000003040700000000000027
:1000C0000000D90411241FBECFEFD8E0DEBFCDBFA2
:1000D00011E0A0E0B1E0EAECFAE002C005900D9278
:1000E000AC31B107D9F721E0ACE1B1E001C01D921C
:1000F000A23CB207E1F710E0C2E6D0E004C02197CD
:10010000FE010E945D05C136D107C9F70E948C032C
:100110000C9463050C940000833081F028F4813046
:1001200099F08230A9F008958730A9F08830C9F09D
:100130008430B1F4809180008F7D03C08091800075
:100140008F7780938000089584B58F7784BD08955C
:1001500084B58F7DFBCF8091B0008F778093B00006
:1001600008958091B0008F7DF9CF1F93CF93DF93D7
:10017000282F30E0F901E255FF4F8491F901E6564E
:10018000FF4FD491F901EA57FF4FC491CC23A9F056
:10019000162F81110E948C00EC2FF0E0EE0FFF1F54
:1001A000E458FF4FA591B4918FB7F894EC911111D9
:1001B00008C0D095DE23DC938FBFDF91CF911F91D4
:1001C0000895DE2BF8CFCF93DF9390E0FC01E65645
:1001D000FF4F24918A579F4FFC0184918823D1F0CF
:1001E00090E0880F991FFC01EE58FF4FA591B49144
:1001F000FC01E458FF4FC591D49161110EC09FB727
:10020000F8948C91E22FE0958E238C932881E22341
:10021000E8839FBFDF91CF9108958FB7F894EC9159
:10022000E22BEC938FBFF6CF3FB7F894809121017A
:1002300090912201A0912301B091240126B5A89BA1
:1002400005C02F3F19F00196A11DB11D3FBFBA2F68
:10025000A92F982F8827BC01CD01620F711D811D28
:10026000911D42E0660F771F881F991F4A95D1F7AD
:1002700008958F929F92AF92BF92CF92DF92EF92AA
:10028000FF924B015C010E9414016B017C010E94F2
:1002900014016C197D098E099F09683E7340810520
:1002A0009105A8F321E0821A9108A108B10888EE0F
:1002B000C80E83E0D81EE11CF11C81149104A10436
:1002C000B10429F7FF90EF90DF90CF90BF90AF90EF
:1002D0009F908F900895AF92BF92CF92DF92EF924E
:1002E000FF920F931F93CF93DF936C017B018B01E0
:1002F000040F151FEB015E01AE18BF08C017D10730
:1003000059F06991D601ED91FC910190F081E02DB9
:10031000C6010995892B79F7C501DF91CF911F910E
:100320000F91FF90EF90DF90CF90BF90AF90089526
:10033000FC01538D448D252F30E0842F90E0821BEB
:10034000930B541710F0CF96089501970895FC0170
:10035000918D828D981761F0A28DAE0FBF2FB11DC8
:100360005D968C91928D9F5F9F73928F90E0089520
:100370008FEF9FEF0895FC01918D828D981731F0DA
:10038000828DE80FF11D858D90E008958FEF9FEF2E
:100390000895FC01918D228D892F90E0805C9F4F04
:1003A000821B91098F739927089585E291E00E943D
:1003B000C90121E0892B09F420E0822F089580E013
:1003C00090E0892B29F00E94D50181110C94000046
:1003D0000895FC01A48DA80FB92FB11DA35ABF4FDA
:1003E0002C91848D90E001968F739927848FA68934
:1003F000B7892C93A089B1898C91837080648C9388
:10040000938D848D981306C00288F389E02D808136
:100410008F7D80830895EF92FF920F931F93CF9368
:10042000DF93EC0181E0888F9B8D8C8D98131AC02F
:10043000E889F989808185FF15C09FB7F894EE8916
:10044000FF896083E889F989808183708064808373
:100450009FBF81E090E0DF91CF911F910F91FF90BE
:10046000EF900895F62E0B8D10E00F5F1F4F0F7366
:100470001127E02E8C8D8E110CC00FB607FCFACF21
:10048000E889F989808185FFF5CFCE010E94E901D5
:10049000F1CFEB8DEC0FFD2FF11DE35AFF4FF082F2
:1004A0009FB7F8940B8FEA89FB8980818062CFCF58
:1004B000CF93DF93EC01888D8823B9F0AA89BB899B
:1004C000E889F9898C9185FD03C0808186FD0DC086
:1004D0000FB607FCF7CF8C9185FFF2CF808185FFA7
:1004E000EDCFCE010E94E901E9CFDF91CF910895D0
:1004F000FC0101900020E9F73197AF01481B590B2F
:10050000BC0185E291E00C946B018F929F92AF92B7
:10051000BF920F931F93CF93DF93CDB7DEB7A19711
:100520000FB6F894DEBF0FBECDBF19A2423008F45B
:100530004AE08E010F5D1F4F842E912CB12CA12C0F
:10054000A50194010E942505E62FB901CA01EA30F0
:10055000F4F4E05DD801EE938D01232B242B252BA1
:1005600079F790E080E0109719F0CD010E947802B1
:10057000A1960FB6F894DEBF0FBECDBFDF91CF912D
:100580001F910F91BF90AF909F908F900895E95C5D
:10059000E1CFCF92DF92EF92FF92CF93DF936B0187
:1005A0007C016DE285E291E00E940B02EC0166277E
:1005B0007727CB016C197D098E099F094AE00E94BB
:1005C00085028C0F9D1FDF91CF91FF90EF90DF9000
:1005D000CF9008951F920F920FB60F9211242F9370
:1005E0003F938F939F93AF93BF9380911D01909101
:1005F0001E01A0911F01B091200130911C0123E048
:10060000230F2D3758F50196A11DB11D20931C0114
:1006100080931D0190931E01A0931F01B0932001B0
:100620008091210190912201A0912301B091240198
:100630000196A11DB11D8093210190932201A093E9
:100640002301B0932401BF91AF919F918F913F916E
:100650002F910F900FBE0F901F90189526E8230F33
:100660000296A11DB11DD2CF1F920F920FB60F920D
:1006700011242F933F934F935F936F937F938F93A7
:100680009F93AF93BF93EF93FF9385E291E00E9416
:10069000E901FF91EF91BF91AF919F918F917F9170
:1006A0006F915F914F913F912F910F900FBE0F90DF
:1006B0001F9018951F920F920FB60F9211242F932F
:1006C0008F939F93EF93FF93E0913501F091360163
:1006D0008081E0913B01F0913C0182FD1BC0908143
:1006E00080913E018F5F8F7320913F01821741F00F
:1006F000E0913E01F0E0EB5DFE4F958F80933E016F
:10070000FF91EF919F918F912F910F900FBE0F90BE
:100710001F9018958081F4CF789484B5826084BD51
:1007200084B5816084BD85B5826085BD85B58160F5
:1007300085BD80916E00816080936E001092810073
:10074000809181008260809381008091810081602E
:1007500080938100809180008160809380008091EF
:10076000B10084608093B1008091B000816080937B
:10077000B00080917A00846080937A0080917A0042
:10078000826080937A0080917A00816080937A0001
:1007900080917A00806880937A001092C100E09185
:1007A0003501F091360182E08083E0913101F091D2
:1007B00032011082E0913301F09134018FEC80839B
:1007C00010923D01E0913901F0913A0186E0808379
:1007D000E0913701F0913801808180618083E09160
:1007E0003701F0913801808188608083E091370182
:1007F000F0913801808180688083E0913701F09129
:10080000380180818F7D808360E082E00E94E30078
:1008100061E085E00E94E30061E086E00E94E30081
:1008200061E087E00E94E30044244A9493E0592E5B
:10083000612C712C20EB222E20E0322E3CE9832EFD
:1008400030E0932E08E810E040E0A42E40E0B42E03
:1008500020E420937C0080917A00806480937A0069
:1008600080917A0086FDFCCFA0917800B09179004C
:1008700024E630E00E945605A30192010E9406057D
:1008800069017A01F1018491F401C491F801D491D4
:10089000DD2309F485C081110E948C00ED2FF0E06A
:1008A000EE0FFF1FE859FF4FA591B4918C91C8231B
:1008B00091E080E009F490E0C92FD82F80910201E7
:1008C000909103019601281B390BC90137FF03C022
:1008D00091958195910903973CF480910001909145
:1008E00001018C179D0721F1F7FE5DC0C701B6011C
:1008F0000E94C90286E191E00E947802BE010D2E9D
:10090000000C880B990B4AE00E94850288E191E077
:100910000E947802D0920301C0920201D09301019B
:10092000C093000162E370E080E090E00E94390132
:1009300085E291E00E94C901181619062CF56AE0BB
:1009400070E080E090E00E94390185E291E00E9431
:10095000A701C82F60E085E00E94B50060E086E056
:100960000E94B50060E087E00E94B50061E085E08C
:10097000C13441F061E086E0C23421F0C33421F497
:1009800061E087E00E94B500A114B10409F460CFD2
:100990000E94D501882309F45BCF0E94000058CF44
:1009A000D0E0C0E08BCF4AE0C701B6010E948502CB
:1009B000A1CFE5E2F1E01382128288EE93E0A0E09D
:1009C000B0E084839583A683B78388E091E0918328
:1009D000808385EC90E09587848784EC90E097870E
:1009E000868780EC90E0918B808B81EC90E0938BFC
:1009F000828B82EC90E0958B848B86EC90E0978BD9
:100A0000868B118E128E138E148E0895052E97FBF1
:100A10001EF400940E941D0557FD07D00E94250575
:100A200007FC03D04EF40C941D055095409530956D
:100A300021953F4F4F4F5F4F08959095809570954A
:100A400061957F4F8F4F9F4F0895A1E21A2EAA1BE9
:100A5000BB1BFD010DC0AA1FBB1FEE1FFF1FA2176E
:100A6000B307E407F50720F0A21BB30BE40BF50B6B
:100A7000661F771F881F991F1A9469F760957095F4
:100A8000809590959B01AC01BD01CF010895A29F77
:100A9000B001B39FC001A39F700D811D1124911D52
:100AA000B29F700D811D1124911D08950E9447056C
:100AB000B7FF0895821B930B0895EE0FFF1F05905B
:0A0AC000F491E02D0994F894FFCFA3
:100ACA00FFFFFFFF000000000B026B0198015802B4
:0C0ADA00C901A701BB012C000D0A00009F
:00000001FF
